:020000040800F2
:10200000B8080020C9200008D1200008D32000080B
:1020100000000000000000000000000000000000C0
:10202000000000000000000000000000D5200008B3
:102030000000000000000000D72000080126000872
:10204000DB20000800000000DB200008DB20000887
:10205000DB200008DB200008DB200008DB20000874
:1020600000000000DB200008DB200008DB20000867
:10207000DB200008DB200008DB2000080000000057
:10208000DB200008DB20000800000000DB20000847
:10209000DB200008DB200008DB200008DB20000834
:1020A000DB200008DB200008DB200008DB20000824
:1020B000752700080348854600F02AF800480047C5
:1020C000052C0008B8080020044880470448004751
:1020D000FEE7FEE7FEE7FEE7FEE7FEE70127000872
:1020E000B520000830B50B4601460020202201240F
:1020F00009E00D46D5409D4205D31D469540491B3C
:102100002546954040191546521E002DF1DC30BD84
:10211000064C0125064E05E0E36807CC2B430C3C3A
:1021200098471034B442F7D3FFF7C8FF202E0008B9
:10213000402E00081D4840690121490408431B49FD
:102140004861084680698914084318498861092054
:10215000C0060068164908400921C90608600846FB
:102160000068FF21053108430921C90608600846B7
:1021700000681521C90208430921C90608600846FC
:10218000006A0003000B0862084680683F2189024C
:1021900008430921C90688600020064908600F200D
:1021A00000024860D12080000860704700100240A3
:1021B000F000FFFF0030014000B510200921C906E2
:1021C0008861022088610A2000F090F9102009211E
:1021D000C90688620121084600F00EF81020092186
:1021E000C906886188624101022000F005F81020CC
:1021F0000921C906886100BD30B503460C46D802E6
:10220000012189024018E107C90F084385B2102057
:102210000921C9068862284600F050F9284600F0D6
:102220004DF910200921C906886130BD0EB5184846
:1022300080690121C90208431549886102200021F3
:1022400003220B46009201910290024608210920C8
:10225000C00600F06BFC0220002103220B46009216
:102260000191029002460921C80600F05FFC00209F
:10227000084908604860FF200230886103208860B8
:10228000112008620448C862012008600EBD0000E9
:1022900000100240002C0140FFFF00000221024A12
:1022A0001180024908607047440100204801002065
:1022B0000248034948600348486070472301674566
:1022C00000200240AB89EFCD00B53E4800880300F6
:1022D00000F022FB0604050F22374D7670E03A48E5
:1022E000C06820210840002802D00020354908801D
:1022F00066E03548006902210843334908613348E4
:102300000068486108460069402108432E49086179
:1023100003202C49088053E02B48C0682021084046
:1023200000280DD020202849C860084600690221F5
:102330008843254908610020254908602149088013
:102340003EE021480069012108431F4908612048F7
:10235000006840001F490968085A1D49096849007A
:102360001A4A1268505205201649088028E016487B
:10237000C06820210840002821D00420114908808D
:102380001148C068202108430F49C8600846006909
:102390004008400008610E480068401C0C49086075
:1023A0000846006840000949096840180A49096858
:1023B000884204D10020064908600249088000BF15
:1023C00000BF00BD44010020002002404801002061
:1023D00054010020500100204C01002010B52B4872
:1023E0000078002802D002284ED100E04CE02848B6
:1023F00000680821084326490860264800885528B7
:1024000002D0DE2831D126E02348FFF747FF2348DA
:102410000069012108432149086121481E490880BB
:1024200000BF1E48C068202108400028F9D01B4882
:10243000C06808431949C860084600694008400060
:10244000086118481849086000BF1748006800284C
:10245000FBD100F0ABFA13481349086000BF1248E3
:1024600000680028FBD100F0A1FA10A1124800F08A
:102470003FFA114800F0FEF900BF00BF00F0D4FAA7
:1024800000200249087000BF00BF10BD40010020BD
:1024900024010020B6020020001C00080020024099
:1024A000ADDE00008813000028010020436F6D207E
:1024B0006572720A000000009C010020014600BF06
:1024C00009488068802210400028F9D10648C16080
:1024D00000BF05488068C007C00F0028F9D0024837
:1024E000C06880B2704700000030014008B500901D
:1024F00000BF00994A1E00920029FAD108BD0000D1
:1025000072B601214907002006E082000A4BD2186A
:1025100012688300CA50401C3028F6D30748006870
:1025200003221043054A10600548806901221043C8
:10253000034A906162B67047002000080000014025
:10254000001002402C482D49096801221204114351
:102550002A4A116000BF0146401E002906D02749C3
:1025600009680122520411400029F4D02349096866
:1025700001225204114000293CD020494968F02230
:1025800091431E4A51601146496807221202914345
:102590001A4A5160114649683F2212049143174A72
:1025A000516011464968112212041143134A5160C7
:1025B00011460968012212061143104A116000BF3A
:1025C0000E4909680122520611400029F8D00B4932
:1025D000496889088900094A516011464968022200
:1025E0001143064A516000BF044949680C2211405A
:1025F0000829F9D17047000040420F000010024046
:1026000010480068401C0F4908607D21C9008842BD
:102610000ED300200B4908600B48006801210843D5
:10262000094908600846006808218843064908608F
:1026300006480068002804D004480068401E03498A
:10264000086070472001002024010020280100209C
:10265000F8B50025002400260027244840680C21F6
:1026600008400546002D04D0042D06D0082D2BD19E
:1026700007E01F481F4908602AE01D481D490860FF
:1026800026E01A4840680F2189040840044617488C
:1026900040680121090408400646A00C841C134828
:1026A000C06A0007000F471C0846864207D139461A
:1026B0000F48FFF717FD60430E49086003E00E481E
:1026C00060430C49086003E009480A49086000BFFC
:1026D00000BF06484068F0210840000907490D5C2A
:1026E00004480068E84003490860F8BD0010024053
:1026F00000127A005801002000093D00082E000851
:1027000019480068012108431749086008464068D5
:1027100016490840144948600846006814490840B2
:1027200011490860084600680121890488430E4960
:102730000860084640683F21090488430A49486008
:102740000846C06A00090001C8620846006BFF2104
:1027500014318843044908630846406B4008400030
:102760004863002088607047001002400CB8FF08E2
:10277000FFFFF6FE104840680F21090408430E4988
:1027800048600D4840308069400840000A494031A7
:1027900088610A488088C861084680690121084329
:1027A00005494031886100BF0348006801214904A0
:1027B00008400028F8D07047000002402044004044
:1027C00010B5044625484069254908432349486116
:1027D0000846C0690121490408432049C86109200D
:1027E000C0060068F02188430921C9060860084630
:1027F0000068A02108430921C90608600846006A4C
:10280000FF21090288430921C90608620846006AB7
:102810001121090208430921C9060862FFF718FFC0
:102820000020104908604860C020886021460E489A
:102830000068FFF757FC0B49C8600D2008600B4883
:102840000B49486280208861064824300862902045
:10285000486004482830C86010BD000000100240E5
:10286000010002000044004058010020B602002090
:10287000400002401849096808221140002929D166
:1028800000BF164A106101E04A1C91B20378401C57
:10289000002BF9D1114A403A52680F231B031A4307
:1028A0000E4B403B5A600D4A5268520852000B4B87
:1028B0005A601A469160526801231A43074B5A60C6
:1028C00000BF064A403A126801235B031A40002AFF
:1028D000F7D000BF704700002401002040000240F4
:1028E0000148024908607047AAAA00000030004071
:1028F0000FB410B50846074A02A900F080F8044654
:1029000002A9002000F08AF8204610BC08BC04B0E0
:10291000184700001D2A000830B47446641E25784C
:10292000641CAB4204D3635D5B00E31830BC184702
:102930001D46F8E710B5002819DB1A4A03231B02CD
:10294000D21883089B00D2588307DC0EFF23A340D4
:102950009A438B071B0E8407E40EA3401A43114BC6
:10296000032424021B198408A4001A5118E00E4AFB
:1029700003071B0F083B9B089B00D2588307DC0E04
:10298000FF23A3409A438B071B0E8407E40EA3404A
:102990001A43054B0407240F083CA408A4001A514D
:1029A00010BD000000E100E01CED00E000BF00BF32
:1029B00000BFBFF34F8F00BF00BF00BF06480749ED
:1029C000C86000BF00BF00BFBFF34F8F00BF00BF94
:1029D00000BF00BF00BFFDE70400FA0500ED00E006
:1029E00002E008C8121F08C1002AFAD170477047D8
:1029F000002001E001C1121F002AFBD17047F8B589
:102A000016460F460446002503E03946B047641CCD
:102A10006D1C20780028F8D12846F8BD0A68531CA0
:102A20000B60107070470000002005E0002142009C
:102A3000054B9952411C88B2044909888842F5DB4C
:102A40000020024908807047B602002038010020AB
:102A500010B531480088002802D001285AD120E062
:102A60002E48C06920210840002819D02C48406811
:102A70000F21090408432A49486088152849403134
:102A8000C8610846806901210843254940318861B1
:102A90000020244908802449088001201E4908801C
:102AA00038E01E48C06910210840002804D01D48A5
:102AB0000088401C1B49088019480068012149040E
:102AC0000840002806D0002013490880FF2001306C
:102AD0001549088013480088FF281ADB0F48006A50
:102AE0000121C90208430D4908620D484030C06900
:102AF0008915081A0C490880094840308069400847
:102B0000400007494031886100F074F90020024913
:102B1000088000BF00BF10BD3A0100200044004003
:102B2000000002403C01002038010020F0B5059C67
:102B300005684F000326BE40B543056005684E009A
:102B40001746B7403D430560456802268E40B543B1
:102B5000456045681E468E403543456085684F0098
:102B60000326BE40B543856085684E002746B740C2
:102B70003D438560C5684F000326BE40B543C56030
:102B8000C6684F00069DBD402E43C660072901DD83
:102B9000012500E00025AE0005462035AD59072986
:102BA00001DD012600E00026F6008E1BB7000F268F
:102BB000BE40B543072901DD012600E00026B6002E
:102BC00007462037BD51072901DD012500E000251A
:102BD000AE0005462035AE59072901DD012500E08C
:102BE0000025ED004D1BAF00079DBD402E4307297A
:102BF00001DD012500E00025AD00074620377E51AC
:102C0000F0BD0000FFF77CFCFFF752FBFFF79AFCDA
:102C1000FFF71EFD7D21C90065480068FFF762FAD5
:102C20000446601E6349884200D90CE0601E624978
:102C300048610321081FFFF77DFE00205E4988617F
:102C40000720086100BF5D48FFF7BAFDFFF772FA81
:102C5000FFF7B2FA002412E002200921C9068862B7
:102C60008861102088620020FFF728FC0020FFF711
:102C700025FC10200921C9068861601CC4B2012C02
:102C8000EADB4FA15148FFF733FE5048FFF7F2FD52
:102C9000FFF7CCFADE204E490872AD20487285E07D
:102CA000FFF71EFEFFF7D4FEFFF798FBFFF70CFBC4
:102CB0004848006802210843464908600846006801
:102CC0000221084000284CD04348406A40494871DE
:102CD0004148406A0004000E087102200921C9061B
:102CE00088628861102088620020FFF7E7FB0446B5
:102CF00037494C70201208700020FFF7DFFB0446B4
:102D00003349CC702012887010200921C9068861CF
:102D10000A252F48314908613048403840680F2162
:102D2000090308432D49403948602C484068400851
:102D300040002A49486008468560406801210843F0
:102D40002649486000BF25484038006801214903F2
:102D500008400028F7D022480068401C204908603D
:102D600000BF1C480068C007C00F00281ED01948CB
:102D7000006802210840002806D11AA11348FFF775
:102D8000B7FD1248FFF776FD124800684008400082
:102D900010490860124800780D49C8711048008831
:102DA0000004000E887100200D49086078E70000DB
:102DB00058010020FFFFFF0000E000E080841E00BB
:102DC0004D61696E206170700A0000009C01002056
:102DD000AC02002024010020002C014040000240F1
:102DE00030010020414443206E6F7420666F756E81
:102DF000640A000003480078002802D1022001493B
:102E00000870704740010020000000000000000032
:102E10000102030406070809000000000102030480
:102E2000402E0008200100203C000000E02900089E
:102E30007C2E00085C0100205C070000F0290008DF
:102E40000000000000000000000000000000000082
:102E50000000000000000000000000000000000072
:102E60000000000000000000000000000000000062
:0C2E7000000000000000000000127A00CA
:04000005080020B51A
:00000001FF
